{
  "_format": "hh-sol-artifact-1",
  "contractName": "SimpleStudentRewards",
  "sourceName": "contracts/SimpleStudentRewards.sol",
  "abi": [
    {
      "inputs": [],
      "stateMutability": "nonpayable",
      "type": "constructor"
    },
    {
      "anonymous": false,
      "inputs": [
        {
          "indexed": true,
          "internalType": "address",
          "name": "funder",
          "type": "address"
        },
        {
          "indexed": false,
          "internalType": "uint256",
          "name": "amount",
          "type": "uint256"
        }
      ],
      "name": "ContractFunded",
      "type": "event"
    },
    {
      "anonymous": false,
      "inputs": [
        {
          "indexed": true,
          "internalType": "address",
          "name": "student",
          "type": "address"
        },
        {
          "indexed": false,
          "internalType": "uint256",
          "name": "rewardAmount",
          "type": "uint256"
        },
        {
          "indexed": false,
          "internalType": "uint256",
          "name": "timestamp",
          "type": "uint256"
        }
      ],
      "name": "FoodClaimed",
      "type": "event"
    },
    {
      "inputs": [],
      "name": "REWARD_AMOUNT",
      "outputs": [
        {
          "internalType": "uint256",
          "name": "",
          "type": "uint256"
        }
      ],
      "stateMutability": "view",
      "type": "function"
    },
    {
      "inputs": [],
      "name": "adminCertificateContract",
      "outputs": [
        {
          "internalType": "address",
          "name": "",
          "type": "address"
        }
      ],
      "stateMutability": "view",
      "type": "function"
    },
    {
      "inputs": [
        {
          "internalType": "address",
          "name": "student",
          "type": "address"
        },
        {
          "internalType": "address",
          "name": "admin",
          "type": "address"
        }
      ],
      "name": "claimFood",
      "outputs": [],
      "stateMutability": "nonpayable",
      "type": "function"
    },
    {
      "inputs": [],
      "name": "getBalance",
      "outputs": [
        {
          "internalType": "uint256",
          "name": "",
          "type": "uint256"
        }
      ],
      "stateMutability": "view",
      "type": "function"
    },
    {
      "inputs": [
        {
          "internalType": "address",
          "name": "student",
          "type": "address"
        }
      ],
      "name": "getStudentStats",
      "outputs": [
        {
          "internalType": "uint256",
          "name": "claims",
          "type": "uint256"
        },
        {
          "internalType": "uint256",
          "name": "rewards",
          "type": "uint256"
        }
      ],
      "stateMutability": "view",
      "type": "function"
    },
    {
      "inputs": [],
      "name": "owner",
      "outputs": [
        {
          "internalType": "address",
          "name": "",
          "type": "address"
        }
      ],
      "stateMutability": "view",
      "type": "function"
    },
    {
      "inputs": [
        {
          "internalType": "address",
          "name": "_contract",
          "type": "address"
        }
      ],
      "name": "setAdminCertificateContract",
      "outputs": [],
      "stateMutability": "nonpayable",
      "type": "function"
    },
    {
      "inputs": [
        {
          "internalType": "address",
          "name": "",
          "type": "address"
        }
      ],
      "name": "studentClaims",
      "outputs": [
        {
          "internalType": "uint256",
          "name": "",
          "type": "uint256"
        }
      ],
      "stateMutability": "view",
      "type": "function"
    },
    {
      "inputs": [
        {
          "internalType": "address",
          "name": "",
          "type": "address"
        }
      ],
      "name": "studentRewards",
      "outputs": [
        {
          "internalType": "uint256",
          "name": "",
          "type": "uint256"
        }
      ],
      "stateMutability": "view",
      "type": "function"
    },
    {
      "inputs": [
        {
          "internalType": "uint256",
          "name": "amount",
          "type": "uint256"
        }
      ],
      "name": "withdraw",
      "outputs": [],
      "stateMutability": "nonpayable",
      "type": "function"
    },
    {
      "stateMutability": "payable",
      "type": "receive"
    }
  ],
  "bytecode": "0x608060405234801561001057600080fd5b50600080546001600160a01b03191633179055610897806100326000396000f3fe6080604052600436106100955760003560e01c806366d434441161005957806366d434441461019f57806369154310146101bf5780638da5cb5b146101ec5780639b6a84a71461020c578063cf8494421461026457600080fd5b806312065fe0146100d65780632e1a7d4d146100f85780633848db3d1461011a5780634a1d31cc146101475780635a1d16571461016757600080fd5b366100d15760405134815233907f0939f6f4877faf071412e527bc4c6d0bd65ad077e52b57334f7765265647a7f19060200160405180910390a2005b600080fd5b3480156100e257600080fd5b50475b6040519081526020015b60405180910390f35b34801561010457600080fd5b5061011861011336600461074a565b610280565b005b34801561012657600080fd5b506100e561013536600461077f565b60016020526000908152604090205481565b34801561015357600080fd5b5061011861016236600461077f565b610395565b34801561017357600080fd5b50600354610187906001600160a01b031681565b6040516001600160a01b0390911681526020016100ef565b3480156101ab57600080fd5b506101186101ba3660046107a1565b6103e1565b3480156101cb57600080fd5b506100e56101da36600461077f565b60026020526000908152604090205481565b3480156101f857600080fd5b50600054610187906001600160a01b031681565b34801561021857600080fd5b5061024f61022736600461077f565b6001600160a01b03166000908152600160209081526040808320546002909252909120549091565b604080519283526020830191909152016100ef565b34801561027057600080fd5b506100e567016345785d8a000081565b6000546001600160a01b031633146102b35760405162461bcd60e51b81526004016102aa906107d4565b60405180910390fd5b804710156102fa5760405162461bcd60e51b8152602060048201526014602482015273496e73756666696369656e742062616c616e636560601b60448201526064016102aa565b600080546040516001600160a01b039091169083908381818185875af1925050503d8060008114610347576040519150601f19603f3d011682016040523d82523d6000602084013e61034c565b606091505b50509050806103915760405162461bcd60e51b815260206004820152601160248201527015da5d1a191c985dd85b0819985a5b1959607a1b60448201526064016102aa565b5050565b6000546001600160a01b031633146103bf5760405162461bcd60e51b81526004016102aa906107d4565b600380546001600160a01b0319166001600160a01b0392909216919091179055565b6000546001600160a01b0316331461040b5760405162461bcd60e51b81526004016102aa906107d4565b6001600160a01b0382166104615760405162461bcd60e51b815260206004820152601760248201527f496e76616c69642073747564656e74206164647265737300000000000000000060448201526064016102aa565b6001600160a01b0381166104af5760405162461bcd60e51b8152602060048201526015602482015274496e76616c69642061646d696e206164647265737360581b60448201526064016102aa565b67016345785d8a00004710156105075760405162461bcd60e51b815260206004820152601d60248201527f496e73756666696369656e7420636f6e74726163742062616c616e636500000060448201526064016102aa565b6001600160a01b0382166000908152600160208190526040822080549192909161053290849061080b565b90915550506001600160a01b0382166000908152600260205260408120805467016345785d8a0000929061056790849061080b565b90915550506040516000906001600160a01b0384169067016345785d8a0000908381818185875af1925050503d80600081146105bf576040519150601f19603f3d011682016040523d82523d6000602084013e6105c4565b606091505b505090508061060c5760405162461bcd60e51b815260206004820152601460248201527310d15313c81d1c985b9cd9995c8819985a5b195960621b60448201526064016102aa565b6003546001600160a01b0316156106fa576003546040516001600160a01b038481166024830152600092169060440160408051601f198184030181529181526020820180516001600160e01b031663ae3997e960e01b179052516106709190610832565b6000604051808303816000865af19150503d80600081146106ad576040519150601f19603f3d011682016040523d82523d6000602084013e6106b2565b606091505b50509050806106f85760405162461bcd60e51b8152602060048201526012602482015271139195081b5a5b9d1a5b99c819985a5b195960721b60448201526064016102aa565b505b6040805167016345785d8a000081524260208201526001600160a01b038516917f379865891b066520639a65e2a2ff82ce8990e3c71adb0a195e51754ec27aea5f910160405180910390a2505050565b60006020828403121561075c57600080fd5b5035919050565b80356001600160a01b038116811461077a57600080fd5b919050565b60006020828403121561079157600080fd5b61079a82610763565b9392505050565b600080604083850312156107b457600080fd5b6107bd83610763565b91506107cb60208401610763565b90509250929050565b60208082526018908201527f4f6e6c79206f776e65722063616e2063616c6c20746869730000000000000000604082015260600190565b8082018082111561082c57634e487b7160e01b600052601160045260246000fd5b92915050565b6000825160005b818110156108535760208186018101518583015201610839565b50600092019182525091905056fea2646970667358221220fee553d4a577cd5553741e6c6928f642b6a4edf4553bc853812427c315827e3764736f6c63430008140033",
  "linkReferences": {},
  "deployedLinkReferences": {}
}