{
  "_format": "hh-sol-artifact-1",
  "contractName": "AdminFoodCertificate",
  "sourceName": "contracts/AdminFoodCertificate.sol",
  "abi": [
    {
      "inputs": [],
      "stateMutability": "nonpayable",
      "type": "constructor"
    },
    {
      "inputs": [
        {
          "internalType": "address",
          "name": "sender",
          "type": "address"
        },
        {
          "internalType": "uint256",
          "name": "tokenId",
          "type": "uint256"
        },
        {
          "internalType": "address",
          "name": "owner",
          "type": "address"
        }
      ],
      "name": "ERC721IncorrectOwner",
      "type": "error"
    },
    {
      "inputs": [
        {
          "internalType": "address",
          "name": "operator",
          "type": "address"
        },
        {
          "internalType": "uint256",
          "name": "tokenId",
          "type": "uint256"
        }
      ],
      "name": "ERC721InsufficientApproval",
      "type": "error"
    },
    {
      "inputs": [
        {
          "internalType": "address",
          "name": "approver",
          "type": "address"
        }
      ],
      "name": "ERC721InvalidApprover",
      "type": "error"
    },
    {
      "inputs": [
        {
          "internalType": "address",
          "name": "operator",
          "type": "address"
        }
      ],
      "name": "ERC721InvalidOperator",
      "type": "error"
    },
    {
      "inputs": [
        {
          "internalType": "address",
          "name": "owner",
          "type": "address"
        }
      ],
      "name": "ERC721InvalidOwner",
      "type": "error"
    },
    {
      "inputs": [
        {
          "internalType": "address",
          "name": "receiver",
          "type": "address"
        }
      ],
      "name": "ERC721InvalidReceiver",
      "type": "error"
    },
    {
      "inputs": [
        {
          "internalType": "address",
          "name": "sender",
          "type": "address"
        }
      ],
      "name": "ERC721InvalidSender",
      "type": "error"
    },
    {
      "inputs": [
        {
          "internalType": "uint256",
          "name": "tokenId",
          "type": "uint256"
        }
      ],
      "name": "ERC721NonexistentToken",
      "type": "error"
    },
    {
      "inputs": [
        {
          "internalType": "address",
          "name": "owner",
          "type": "address"
        }
      ],
      "name": "OwnableInvalidOwner",
      "type": "error"
    },
    {
      "inputs": [
        {
          "internalType": "address",
          "name": "account",
          "type": "address"
        }
      ],
      "name": "OwnableUnauthorizedAccount",
      "type": "error"
    },
    {
      "anonymous": false,
      "inputs": [
        {
          "indexed": true,
          "internalType": "address",
          "name": "owner",
          "type": "address"
        },
        {
          "indexed": true,
          "internalType": "address",
          "name": "approved",
          "type": "address"
        },
        {
          "indexed": true,
          "internalType": "uint256",
          "name": "tokenId",
          "type": "uint256"
        }
      ],
      "name": "Approval",
      "type": "event"
    },
    {
      "anonymous": false,
      "inputs": [
        {
          "indexed": true,
          "internalType": "address",
          "name": "owner",
          "type": "address"
        },
        {
          "indexed": true,
          "internalType": "address",
          "name": "operator",
          "type": "address"
        },
        {
          "indexed": false,
          "internalType": "bool",
          "name": "approved",
          "type": "bool"
        }
      ],
      "name": "ApprovalForAll",
      "type": "event"
    },
    {
      "anonymous": false,
      "inputs": [
        {
          "indexed": true,
          "internalType": "address",
          "name": "admin",
          "type": "address"
        },
        {
          "indexed": true,
          "internalType": "uint256",
          "name": "tokenId",
          "type": "uint256"
        },
        {
          "indexed": false,
          "internalType": "uint256",
          "name": "timestamp",
          "type": "uint256"
        }
      ],
      "name": "CertificateMinted",
      "type": "event"
    },
    {
      "anonymous": false,
      "inputs": [
        {
          "indexed": true,
          "internalType": "address",
          "name": "previousOwner",
          "type": "address"
        },
        {
          "indexed": true,
          "internalType": "address",
          "name": "newOwner",
          "type": "address"
        }
      ],
      "name": "OwnershipTransferred",
      "type": "event"
    },
    {
      "anonymous": false,
      "inputs": [
        {
          "indexed": true,
          "internalType": "address",
          "name": "from",
          "type": "address"
        },
        {
          "indexed": true,
          "internalType": "address",
          "name": "to",
          "type": "address"
        },
        {
          "indexed": true,
          "internalType": "uint256",
          "name": "tokenId",
          "type": "uint256"
        }
      ],
      "name": "Transfer",
      "type": "event"
    },
    {
      "inputs": [
        {
          "internalType": "address",
          "name": "",
          "type": "address"
        }
      ],
      "name": "adminCertificates",
      "outputs": [
        {
          "internalType": "uint256",
          "name": "tokenId",
          "type": "uint256"
        },
        {
          "internalType": "address",
          "name": "admin",
          "type": "address"
        },
        {
          "internalType": "uint256",
          "name": "foodDonations",
          "type": "uint256"
        },
        {
          "internalType": "uint256",
          "name": "mintedAt",
          "type": "uint256"
        }
      ],
      "stateMutability": "view",
      "type": "function"
    },
    {
      "inputs": [
        {
          "internalType": "address",
          "name": "to",
          "type": "address"
        },
        {
          "internalType": "uint256",
          "name": "tokenId",
          "type": "uint256"
        }
      ],
      "name": "approve",
      "outputs": [],
      "stateMutability": "nonpayable",
      "type": "function"
    },
    {
      "inputs": [
        {
          "internalType": "address",
          "name": "owner",
          "type": "address"
        }
      ],
      "name": "balanceOf",
      "outputs": [
        {
          "internalType": "uint256",
          "name": "",
          "type": "uint256"
        }
      ],
      "stateMutability": "view",
      "type": "function"
    },
    {
      "inputs": [
        {
          "internalType": "uint256",
          "name": "tokenId",
          "type": "uint256"
        }
      ],
      "name": "getApproved",
      "outputs": [
        {
          "internalType": "address",
          "name": "",
          "type": "address"
        }
      ],
      "stateMutability": "view",
      "type": "function"
    },
    {
      "inputs": [
        {
          "internalType": "address",
          "name": "admin",
          "type": "address"
        }
      ],
      "name": "getCertificate",
      "outputs": [
        {
          "internalType": "uint256",
          "name": "tokenId",
          "type": "uint256"
        },
        {
          "internalType": "uint256",
          "name": "foodDonations",
          "type": "uint256"
        },
        {
          "internalType": "uint256",
          "name": "mintedAt",
          "type": "uint256"
        }
      ],
      "stateMutability": "view",
      "type": "function"
    },
    {
      "inputs": [
        {
          "internalType": "address",
          "name": "admin",
          "type": "address"
        }
      ],
      "name": "hasCertificate",
      "outputs": [
        {
          "internalType": "bool",
          "name": "",
          "type": "bool"
        }
      ],
      "stateMutability": "view",
      "type": "function"
    },
    {
      "inputs": [
        {
          "internalType": "address",
          "name": "owner",
          "type": "address"
        },
        {
          "internalType": "address",
          "name": "operator",
          "type": "address"
        }
      ],
      "name": "isApprovedForAll",
      "outputs": [
        {
          "internalType": "bool",
          "name": "",
          "type": "bool"
        }
      ],
      "stateMutability": "view",
      "type": "function"
    },
    {
      "inputs": [
        {
          "internalType": "address",
          "name": "admin",
          "type": "address"
        }
      ],
      "name": "mintCertificate",
      "outputs": [],
      "stateMutability": "nonpayable",
      "type": "function"
    },
    {
      "inputs": [],
      "name": "name",
      "outputs": [
        {
          "internalType": "string",
          "name": "",
          "type": "string"
        }
      ],
      "stateMutability": "view",
      "type": "function"
    },
    {
      "inputs": [],
      "name": "owner",
      "outputs": [
        {
          "internalType": "address",
          "name": "",
          "type": "address"
        }
      ],
      "stateMutability": "view",
      "type": "function"
    },
    {
      "inputs": [
        {
          "internalType": "uint256",
          "name": "tokenId",
          "type": "uint256"
        }
      ],
      "name": "ownerOf",
      "outputs": [
        {
          "internalType": "address",
          "name": "",
          "type": "address"
        }
      ],
      "stateMutability": "view",
      "type": "function"
    },
    {
      "inputs": [],
      "name": "renounceOwnership",
      "outputs": [],
      "stateMutability": "nonpayable",
      "type": "function"
    },
    {
      "inputs": [
        {
          "internalType": "address",
          "name": "from",
          "type": "address"
        },
        {
          "internalType": "address",
          "name": "to",
          "type": "address"
        },
        {
          "internalType": "uint256",
          "name": "tokenId",
          "type": "uint256"
        }
      ],
      "name": "safeTransferFrom",
      "outputs": [],
      "stateMutability": "nonpayable",
      "type": "function"
    },
    {
      "inputs": [
        {
          "internalType": "address",
          "name": "from",
          "type": "address"
        },
        {
          "internalType": "address",
          "name": "to",
          "type": "address"
        },
        {
          "internalType": "uint256",
          "name": "tokenId",
          "type": "uint256"
        },
        {
          "internalType": "bytes",
          "name": "data",
          "type": "bytes"
        }
      ],
      "name": "safeTransferFrom",
      "outputs": [],
      "stateMutability": "nonpayable",
      "type": "function"
    },
    {
      "inputs": [
        {
          "internalType": "address",
          "name": "operator",
          "type": "address"
        },
        {
          "internalType": "bool",
          "name": "approved",
          "type": "bool"
        }
      ],
      "name": "setApprovalForAll",
      "outputs": [],
      "stateMutability": "nonpayable",
      "type": "function"
    },
    {
      "inputs": [
        {
          "internalType": "address",
          "name": "_contract",
          "type": "address"
        }
      ],
      "name": "setStudentRewardsContract",
      "outputs": [],
      "stateMutability": "nonpayable",
      "type": "function"
    },
    {
      "inputs": [
        {
          "internalType": "uint256",
          "name": "tokenId",
          "type": "uint256"
        },
        {
          "internalType": "string",
          "name": "uri",
          "type": "string"
        }
      ],
      "name": "setTokenURI",
      "outputs": [],
      "stateMutability": "nonpayable",
      "type": "function"
    },
    {
      "inputs": [],
      "name": "studentRewardsContract",
      "outputs": [
        {
          "internalType": "address",
          "name": "",
          "type": "address"
        }
      ],
      "stateMutability": "view",
      "type": "function"
    },
    {
      "inputs": [
        {
          "internalType": "bytes4",
          "name": "interfaceId",
          "type": "bytes4"
        }
      ],
      "name": "supportsInterface",
      "outputs": [
        {
          "internalType": "bool",
          "name": "",
          "type": "bool"
        }
      ],
      "stateMutability": "view",
      "type": "function"
    },
    {
      "inputs": [],
      "name": "symbol",
      "outputs": [
        {
          "internalType": "string",
          "name": "",
          "type": "string"
        }
      ],
      "stateMutability": "view",
      "type": "function"
    },
    {
      "inputs": [
        {
          "internalType": "uint256",
          "name": "tokenId",
          "type": "uint256"
        }
      ],
      "name": "tokenURI",
      "outputs": [
        {
          "internalType": "string",
          "name": "",
          "type": "string"
        }
      ],
      "stateMutability": "view",
      "type": "function"
    },
    {
      "inputs": [],
      "name": "totalCertificates",
      "outputs": [
        {
          "internalType": "uint256",
          "name": "",
          "type": "uint256"
        }
      ],
      "stateMutability": "view",
      "type": "function"
    },
    {
      "inputs": [
        {
          "internalType": "address",
          "name": "from",
          "type": "address"
        },
        {
          "internalType": "address",
          "name": "to",
          "type": "address"
        },
        {
          "internalType": "uint256",
          "name": "tokenId",
          "type": "uint256"
        }
      ],
      "name": "transferFrom",
      "outputs": [],
      "stateMutability": "nonpayable",
      "type": "function"
    },
    {
      "inputs": [
        {
          "internalType": "address",
          "name": "newOwner",
          "type": "address"
        }
      ],
      "name": "transferOwnership",
      "outputs": [],
      "stateMutability": "nonpayable",
      "type": "function"
    }
  ],
  "bytecode": "0x60806040523480156200001157600080fd5b50336040518060400160405280601981526020017f466f6f6420446f6e6174696f6e204365727469666963617465000000000000008152506040518060400160405280600381526020016246444360e81b8152508160009081620000769190620001c5565b506001620000858282620001c5565b5050506001600160a01b038116620000b757604051631e4fbdf760e01b81526000600482015260240160405180910390fd5b620000c281620000ce565b50600160075562000291565b600680546001600160a01b038381166001600160a01b0319831681179093556040519116919082907f8be0079c531659141344cd1fd0a4f28419497f9722a3daafe3b4186f6b6457e090600090a35050565b634e487b7160e01b600052604160045260246000fd5b600181811c908216806200014b57607f821691505b6020821081036200016c57634e487b7160e01b600052602260045260246000fd5b50919050565b601f821115620001c057600081815260208120601f850160051c810160208610156200019b5750805b601f850160051c820191505b81811015620001bc57828155600101620001a7565b5050505b505050565b81516001600160401b03811115620001e157620001e162000120565b620001f981620001f2845462000136565b8462000172565b602080601f831160018114620002315760008415620002185750858301515b600019600386901b1c1916600185901b178555620001bc565b600085815260208120601f198616915b82811015620002625788860151825594840194600190910190840162000241565b5085821015620002815787850151600019600388901b60f8161c191681555b5050505050600190811b01905550565b61177780620002a16000396000f3fe608060405234801561001057600080fd5b50600436106101585760003560e01c8063715018a6116100c3578063b88d4fde1161007c578063b88d4fde146102e7578063c87b56dd146102fa578063d5806d881461030d578063e985e9c514610374578063f2fde38b14610387578063fd531e931461039a57600080fd5b8063715018a61461028d5780638da5cb5b1461029557806395d89b41146102a6578063a22cb465146102ae578063ae3997e9146102c1578063af2a3e94146102d457600080fd5b806323b872dd1161011557806323b872dd1461021857806342842e0e1461022b578063596b772f1461023e5780635f5d0939146102545780636352211e1461026757806370a082311461027a57600080fd5b806301ffc9a71461015d57806306fdde0314610185578063081812fc1461019a578063095ea7b3146101c55780630c02199b146101da578063162094c414610205575b600080fd5b61017061016b366004611198565b61041a565b60405190151581526020015b60405180910390f35b61018d61046c565b60405161017c919061120c565b6101ad6101a836600461121f565b6104fe565b6040516001600160a01b03909116815260200161017c565b6101d86101d3366004611254565b610527565b005b6101706101e836600461127e565b6001600160a01b0316600090815260096020526040902054151590565b6101d8610213366004611325565b610536565b6101d8610226366004611380565b6105b8565b6101d8610239366004611380565b610643565b61024661065e565b60405190815260200161017c565b6101d861026236600461127e565b610674565b6101ad61027536600461121f565b61069e565b61024661028836600461127e565b6106a9565b6101d86106f1565b6006546001600160a01b03166101ad565b61018d610705565b6101d86102bc3660046113bc565b610714565b6101d86102cf36600461127e565b61071f565b6008546101ad906001600160a01b031681565b6101d86102f53660046113f8565b6108de565b61018d61030836600461121f565b6108f6565b61034c61031b36600461127e565b600960205260009081526040902080546001820154600283015460039093015491926001600160a01b039091169184565b604080519485526001600160a01b03909316602085015291830152606082015260800161017c565b610170610382366004611474565b610a29565b6101d861039536600461127e565b610a57565b6103ff6103a836600461127e565b6001600160a01b038082166000908152600960209081526040918290208251608081018452815480825260018301549095169281019290925260028101549282018390526003015460609091018190529193909250565b6040805193845260208401929092529082015260600161017c565b60006001600160e01b031982166380ac58cd60e01b148061044b57506001600160e01b03198216635b5e139f60e01b145b8061046657506301ffc9a760e01b6001600160e01b03198316145b92915050565b60606000805461047b906114a7565b80601f01602080910402602001604051908101604052809291908181526020018280546104a7906114a7565b80156104f45780601f106104c9576101008083540402835291602001916104f4565b820191906000526020600020905b8154815290600101906020018083116104d757829003601f168201915b5050505050905090565b600061050982610a95565b506000828152600460205260409020546001600160a01b0316610466565b610532828233610ace565b5050565b61053e610adb565b60006105498361069e565b6001600160a01b03160361059b5760405162461bcd60e51b8152602060048201526014602482015273151bdad95b88191bd95cc81b9bdd08195e1a5cdd60621b60448201526064015b60405180910390fd5b6000828152600a602052604090206105b38282611527565b505050565b6001600160a01b0382166105e257604051633250574960e11b815260006004820152602401610592565b60006105ef838333610b08565b9050836001600160a01b0316816001600160a01b03161461063d576040516364283d7b60e01b81526001600160a01b0380861660048301526024820184905282166044820152606401610592565b50505050565b6105b3838383604051806020016040528060008152506108de565b6000600160075461066f91906115fd565b905090565b61067c610adb565b600880546001600160a01b0319166001600160a01b0392909216919091179055565b600061046682610a95565b60006001600160a01b0382166106d5576040516322718ad960e21b815260006004820152602401610592565b506001600160a01b031660009081526003602052604090205490565b6106f9610adb565b6107036000610c01565b565b60606001805461047b906114a7565b610532338383610c53565b6008546001600160a01b031633148061074257506006546001600160a01b031633145b6107875760405162461bcd60e51b8152602060048201526016602482015275139bdd08185d5d1a1bdc9a5e9959081d1bc81b5a5b9d60521b6044820152606401610592565b6001600160a01b0381166107d55760405162461bcd60e51b8152602060048201526015602482015274496e76616c69642061646d696e206164647265737360581b6044820152606401610592565b6001600160a01b03811660009081526009602052604090208054156108145760018160020160008282546108099190611610565b909155506105329050565b600780549060019060006108288385611610565b9091555061083890508382610cea565b604080516080810182528281526001600160a01b038581166020808401828152600185870181815242606088018181526000878152600987528a902098518955935192880180546001600160a01b0319169390971692909217909555935160028601555160039094019390935592519081528392917ffb2a8276c788bcdeaec6f4ec55f21fc636460802e63cb7e05337309232a1b90591015b60405180910390a3505050565b6108e98484846105b8565b61063d3385858585610d04565b606060006109038361069e565b6001600160a01b0316036109505760405162461bcd60e51b8152602060048201526014602482015273151bdad95b88191bd95cc81b9bdd08195e1a5cdd60621b6044820152606401610592565b6000828152600a602052604081208054610969906114a7565b80601f0160208091040260200160405190810160405280929190818152602001828054610995906114a7565b80156109e25780601f106109b7576101008083540402835291602001916109e2565b820191906000526020600020905b8154815290600101906020018083116109c557829003601f168201915b505050505090506000815111156109f95792915050565b610a0283610e2f565b604051602001610a129190611623565b604051602081830303815290604052915050919050565b6001600160a01b03918216600090815260056020908152604080832093909416825291909152205460ff1690565b610a5f610adb565b6001600160a01b038116610a8957604051631e4fbdf760e01b815260006004820152602401610592565b610a9281610c01565b50565b6000818152600260205260408120546001600160a01b03168061046657604051637e27328960e01b815260048101849052602401610592565b6105b38383836001610f38565b6006546001600160a01b031633146107035760405163118cdaa760e01b8152336004820152602401610592565b6000828152600260205260408120546001600160a01b0390811690831615610b3557610b3581848661103e565b6001600160a01b03811615610b7357610b52600085600080610f38565b6001600160a01b038116600090815260036020526040902080546000190190555b6001600160a01b03851615610ba2576001600160a01b0385166000908152600360205260409020805460010190555b60008481526002602052604080822080546001600160a01b0319166001600160a01b0389811691821790925591518793918516917fddf252ad1be2c89b69c2b068fc378daa952ba7f163c4a11628f55a4df523b3ef91a4949350505050565b600680546001600160a01b038381166001600160a01b0319831681179093556040519116919082907f8be0079c531659141344cd1fd0a4f28419497f9722a3daafe3b4186f6b6457e090600090a35050565b6001600160a01b038216610c8557604051630b61174360e31b81526001600160a01b0383166004820152602401610592565b6001600160a01b03838116600081815260056020908152604080832094871680845294825291829020805460ff191686151590811790915591519182527f17307eab39ab6107e8899845ad3d59bd9653f200f220920489ca2b5937696c3191016108d1565b6105328282604051806020016040528060008152506110a2565b6001600160a01b0383163b15610e2857604051630a85bd0160e11b81526001600160a01b0384169063150b7a0290610d4690889088908790879060040161167a565b6020604051808303816000875af1925050508015610d81575060408051601f3d908101601f19168201909252610d7e918101906116b7565b60015b610dea573d808015610daf576040519150601f19603f3d011682016040523d82523d6000602084013e610db4565b606091505b508051600003610de257604051633250574960e11b81526001600160a01b0385166004820152602401610592565b805160208201fd5b6001600160e01b03198116630a85bd0160e11b14610e2657604051633250574960e11b81526001600160a01b0385166004820152602401610592565b505b5050505050565b606081600003610e565750506040805180820190915260018152600360fc1b602082015290565b8160005b8115610e805780610e6a816116d4565b9150610e799050600a83611703565b9150610e5a565b60008167ffffffffffffffff811115610e9b57610e9b611299565b6040519080825280601f01601f191660200182016040528015610ec5576020820181803683370190505b5090505b8415610f3057610eda6001836115fd565b9150610ee7600a86611717565b610ef2906030611610565b60f81b818381518110610f0757610f0761172b565b60200101906001600160f81b031916908160001a905350610f29600a86611703565b9450610ec9565b949350505050565b8080610f4c57506001600160a01b03821615155b1561100e576000610f5c84610a95565b90506001600160a01b03831615801590610f885750826001600160a01b0316816001600160a01b031614155b8015610f9b5750610f998184610a29565b155b15610fc45760405163a9fbf51f60e01b81526001600160a01b0384166004820152602401610592565b811561100c5783856001600160a01b0316826001600160a01b03167f8c5be1e5ebec7d5bd14f71427d1e84f3dd0314c0f7b2291e5b200ac8c7c3b92560405160405180910390a45b505b5050600090815260046020526040902080546001600160a01b0319166001600160a01b0392909216919091179055565b6110498383836110ba565b6105b3576001600160a01b03831661107757604051637e27328960e01b815260048101829052602401610592565b60405163177e802f60e01b81526001600160a01b038316600482015260248101829052604401610592565b6110ac838361111d565b6105b3336000858585610d04565b60006001600160a01b03831615801590610f305750826001600160a01b0316846001600160a01b031614806110f457506110f48484610a29565b80610f305750506000908152600460205260409020546001600160a01b03908116911614919050565b6001600160a01b03821661114757604051633250574960e11b815260006004820152602401610592565b600061115583836000610b08565b90506001600160a01b038116156105b3576040516339e3563760e11b815260006004820152602401610592565b6001600160e01b031981168114610a9257600080fd5b6000602082840312156111aa57600080fd5b81356111b581611182565b9392505050565b60005b838110156111d75781810151838201526020016111bf565b50506000910152565b600081518084526111f88160208601602086016111bc565b601f01601f19169290920160200192915050565b6020815260006111b560208301846111e0565b60006020828403121561123157600080fd5b5035919050565b80356001600160a01b038116811461124f57600080fd5b919050565b6000806040838503121561126757600080fd5b61127083611238565b946020939093013593505050565b60006020828403121561129057600080fd5b6111b582611238565b634e487b7160e01b600052604160045260246000fd5b600067ffffffffffffffff808411156112ca576112ca611299565b604051601f8501601f19908116603f011681019082821181831017156112f2576112f2611299565b8160405280935085815286868601111561130b57600080fd5b858560208301376000602087830101525050509392505050565b6000806040838503121561133857600080fd5b82359150602083013567ffffffffffffffff81111561135657600080fd5b8301601f8101851361136757600080fd5b611376858235602084016112af565b9150509250929050565b60008060006060848603121561139557600080fd5b61139e84611238565b92506113ac60208501611238565b9150604084013590509250925092565b600080604083850312156113cf57600080fd5b6113d883611238565b9150602083013580151581146113ed57600080fd5b809150509250929050565b6000806000806080858703121561140e57600080fd5b61141785611238565b935061142560208601611238565b925060408501359150606085013567ffffffffffffffff81111561144857600080fd5b8501601f8101871361145957600080fd5b611468878235602084016112af565b91505092959194509250565b6000806040838503121561148757600080fd5b61149083611238565b915061149e60208401611238565b90509250929050565b600181811c908216806114bb57607f821691505b6020821081036114db57634e487b7160e01b600052602260045260246000fd5b50919050565b601f8211156105b357600081815260208120601f850160051c810160208610156115085750805b601f850160051c820191505b81811015610e2657828155600101611514565b815167ffffffffffffffff81111561154157611541611299565b6115558161154f84546114a7565b846114e1565b602080601f83116001811461158a57600084156115725750858301515b600019600386901b1c1916600185901b178555610e26565b600085815260208120601f198616915b828110156115b95788860151825594840194600190910190840161159a565b50858210156115d75787850151600019600388901b60f8161c191681555b5050505050600190811b01905550565b634e487b7160e01b600052601160045260246000fd5b81810381811115610466576104666115e7565b80820180821115610466576104666115e7565b7f68747470733a2f2f666f6f64646f6e6174696f6e2e6578616d706c652f63657281526874696669636174652f60b81b60208201526000825161166d8160298501602087016111bc565b9190910160290192915050565b6001600160a01b03858116825284166020820152604081018390526080606082018190526000906116ad908301846111e0565b9695505050505050565b6000602082840312156116c957600080fd5b81516111b581611182565b6000600182016116e6576116e66115e7565b5060010190565b634e487b7160e01b600052601260045260246000fd5b600082611712576117126116ed565b500490565b600082611726576117266116ed565b500690565b634e487b7160e01b600052603260045260246000fdfea2646970667358221220ca1a9948ecfa9b1699e76f9573bb80007a9c997166ae87bc72d9e53f7372d84b64736f6c63430008140033",
  "linkReferences": {},
  "deployedLinkReferences": {}
}